{
  "_format": "hh-sol-artifact-1",
  "contractName": "Orderbook",
  "sourceName": "contracts/Orderbook.sol",
  "abi": [
    {
      "inputs": [],
      "stateMutability": "nonpayable",
      "type": "constructor"
    },
    {
      "inputs": [],
      "name": "CollateralAmountIsZero",
      "type": "error"
    },
    {
      "inputs": [],
      "name": "CollateralAmountTooLittle",
      "type": "error"
    },
    {
      "inputs": [],
      "name": "DepositAmountIsZero",
      "type": "error"
    },
    {
      "inputs": [],
      "name": "InsufficentRepaymentAmount",
      "type": "error"
    },
    {
      "inputs": [],
      "name": "InsufficentReviews",
      "type": "error"
    },
    {
      "inputs": [],
      "name": "InsufficentTokenAllowance",
      "type": "error"
    },
    {
      "inputs": [],
      "name": "InsufficentTokenBalance",
      "type": "error"
    },
    {
      "inputs": [],
      "name": "InsufficientDepth",
      "type": "error"
    },
    {
      "inputs": [],
      "name": "LoanDoesNotExist",
      "type": "error"
    },
    {
      "inputs": [],
      "name": "NoActiveAsks",
      "type": "error"
    },
    {
      "inputs": [],
      "name": "NoLiquidationPossible",
      "type": "error"
    },
    {
      "inputs": [],
      "name": "OnlyLoanBorrowerCanRepay",
      "type": "error"
    },
    {
      "inputs": [],
      "name": "RateOutOfBounds",
      "type": "error"
    },
    {
      "inputs": [],
      "name": "TransferFailed",
      "type": "error"
    },
    {
      "anonymous": false,
      "inputs": [
        {
          "indexed": false,
          "internalType": "address",
          "name": "lender",
          "type": "address"
        },
        {
          "indexed": false,
          "internalType": "address",
          "name": "borrower",
          "type": "address"
        },
        {
          "indexed": false,
          "internalType": "address",
          "name": "token",
          "type": "address"
        },
        {
          "indexed": false,
          "internalType": "uint256",
          "name": "term",
          "type": "uint256"
        },
        {
          "indexed": false,
          "internalType": "uint256",
          "name": "amount",
          "type": "uint256"
        },
        {
          "indexed": false,
          "internalType": "uint256",
          "name": "rate",
          "type": "uint256"
        }
      ],
      "name": "MarketAsk",
      "type": "event"
    },
    {
      "anonymous": false,
      "inputs": [
        {
          "indexed": false,
          "internalType": "address",
          "name": "lender",
          "type": "address"
        },
        {
          "indexed": false,
          "internalType": "address",
          "name": "borrower",
          "type": "address"
        },
        {
          "indexed": false,
          "internalType": "address",
          "name": "token",
          "type": "address"
        },
        {
          "indexed": false,
          "internalType": "uint256",
          "name": "term",
          "type": "uint256"
        },
        {
          "indexed": false,
          "internalType": "uint256",
          "name": "amount",
          "type": "uint256"
        },
        {
          "indexed": false,
          "internalType": "uint256",
          "name": "rate",
          "type": "uint256"
        }
      ],
      "name": "MarketBid",
      "type": "event"
    },
    {
      "inputs": [
        {
          "internalType": "address",
          "name": "",
          "type": "address"
        },
        {
          "internalType": "uint256",
          "name": "",
          "type": "uint256"
        },
        {
          "internalType": "uint256",
          "name": "",
          "type": "uint256"
        }
      ],
      "name": "asks",
      "outputs": [
        {
          "internalType": "uint256",
          "name": "id",
          "type": "uint256"
        },
        {
          "internalType": "address",
          "name": "lender",
          "type": "address"
        },
        {
          "internalType": "uint256",
          "name": "amount",
          "type": "uint256"
        },
        {
          "internalType": "uint256",
          "name": "rate",
          "type": "uint256"
        },
        {
          "internalType": "uint256",
          "name": "time",
          "type": "uint256"
        }
      ],
      "stateMutability": "view",
      "type": "function"
    },
    {
      "inputs": [
        {
          "internalType": "address",
          "name": "",
          "type": "address"
        },
        {
          "internalType": "uint256",
          "name": "",
          "type": "uint256"
        },
        {
          "internalType": "uint256",
          "name": "",
          "type": "uint256"
        }
      ],
      "name": "bids",
      "outputs": [
        {
          "internalType": "uint256",
          "name": "id",
          "type": "uint256"
        },
        {
          "internalType": "address",
          "name": "borrower",
          "type": "address"
        },
        {
          "internalType": "uint256",
          "name": "amount",
          "type": "uint256"
        },
        {
          "internalType": "uint256",
          "name": "rate",
          "type": "uint256"
        },
        {
          "internalType": "uint256",
          "name": "time",
          "type": "uint256"
        }
      ],
      "stateMutability": "view",
      "type": "function"
    },
    {
      "inputs": [
        {
          "internalType": "address",
          "name": "",
          "type": "address"
        }
      ],
      "name": "creditScore",
      "outputs": [
        {
          "internalType": "uint256",
          "name": "",
          "type": "uint256"
        }
      ],
      "stateMutability": "view",
      "type": "function"
    },
    {
      "inputs": [
        {
          "internalType": "address",
          "name": "_token",
          "type": "address"
        },
        {
          "internalType": "uint256",
          "name": "_amount",
          "type": "uint256"
        }
      ],
      "name": "deposit",
      "outputs": [],
      "stateMutability": "nonpayable",
      "type": "function"
    },
    {
      "inputs": [
        {
          "internalType": "address",
          "name": "",
          "type": "address"
        },
        {
          "internalType": "address",
          "name": "",
          "type": "address"
        }
      ],
      "name": "deposits",
      "outputs": [
        {
          "internalType": "uint256",
          "name": "",
          "type": "uint256"
        }
      ],
      "stateMutability": "view",
      "type": "function"
    },
    {
      "inputs": [
        {
          "internalType": "address",
          "name": "_sender",
          "type": "address"
        }
      ],
      "name": "getAskIds",
      "outputs": [
        {
          "internalType": "uint256[]",
          "name": "",
          "type": "uint256[]"
        }
      ],
      "stateMutability": "view",
      "type": "function"
    },
    {
      "inputs": [
        {
          "internalType": "address",
          "name": "_token",
          "type": "address"
        },
        {
          "internalType": "uint256",
          "name": "_term",
          "type": "uint256"
        }
      ],
      "name": "getAsks",
      "outputs": [
        {
          "components": [
            {
              "internalType": "uint256",
              "name": "id",
              "type": "uint256"
            },
            {
              "internalType": "address",
              "name": "lender",
              "type": "address"
            },
            {
              "internalType": "uint256",
              "name": "amount",
              "type": "uint256"
            },
            {
              "internalType": "uint256",
              "name": "rate",
              "type": "uint256"
            },
            {
              "internalType": "uint256",
              "name": "time",
              "type": "uint256"
            }
          ],
          "internalType": "struct IOrders.Ask[]",
          "name": "",
          "type": "tuple[]"
        }
      ],
      "stateMutability": "view",
      "type": "function"
    },
    {
      "inputs": [
        {
          "internalType": "address",
          "name": "_sender",
          "type": "address"
        }
      ],
      "name": "getBidIds",
      "outputs": [
        {
          "internalType": "uint256[]",
          "name": "",
          "type": "uint256[]"
        }
      ],
      "stateMutability": "view",
      "type": "function"
    },
    {
      "inputs": [
        {
          "internalType": "address",
          "name": "_token",
          "type": "address"
        },
        {
          "internalType": "uint256",
          "name": "_term",
          "type": "uint256"
        }
      ],
      "name": "getBids",
      "outputs": [
        {
          "components": [
            {
              "internalType": "uint256",
              "name": "id",
              "type": "uint256"
            },
            {
              "internalType": "address",
              "name": "borrower",
              "type": "address"
            },
            {
              "internalType": "uint256",
              "name": "amount",
              "type": "uint256"
            },
            {
              "internalType": "uint256",
              "name": "rate",
              "type": "uint256"
            },
            {
              "internalType": "uint256",
              "name": "time",
              "type": "uint256"
            }
          ],
          "internalType": "struct IOrders.Bid[]",
          "name": "",
          "type": "tuple[]"
        }
      ],
      "stateMutability": "view",
      "type": "function"
    },
    {
      "inputs": [
        {
          "internalType": "address",
          "name": "_sender",
          "type": "address"
        }
      ],
      "name": "getLoanIds",
      "outputs": [
        {
          "internalType": "uint256[]",
          "name": "",
          "type": "uint256[]"
        }
      ],
      "stateMutability": "view",
      "type": "function"
    },
    {
      "inputs": [
        {
          "internalType": "address",
          "name": "_token",
          "type": "address"
        },
        {
          "internalType": "uint256",
          "name": "_amount",
          "type": "uint256"
        },
        {
          "internalType": "uint256",
          "name": "_term",
          "type": "uint256"
        },
        {
          "internalType": "uint256",
          "name": "_rate",
          "type": "uint256"
        }
      ],
      "name": "limitAsk",
      "outputs": [],
      "stateMutability": "nonpayable",
      "type": "function"
    },
    {
      "inputs": [
        {
          "internalType": "address",
          "name": "_token",
          "type": "address"
        },
        {
          "internalType": "uint256",
          "name": "_amount",
          "type": "uint256"
        },
        {
          "internalType": "uint256",
          "name": "_term",
          "type": "uint256"
        },
        {
          "internalType": "uint256",
          "name": "_rate",
          "type": "uint256"
        }
      ],
      "name": "limitBid",
      "outputs": [],
      "stateMutability": "nonpayable",
      "type": "function"
    },
    {
      "inputs": [
        {
          "internalType": "address",
          "name": "_token",
          "type": "address"
        },
        {
          "internalType": "uint256",
          "name": "_loanId",
          "type": "uint256"
        },
        {
          "internalType": "address",
          "name": "_oracleAddress",
          "type": "address"
        }
      ],
      "name": "liquidate",
      "outputs": [],
      "stateMutability": "nonpayable",
      "type": "function"
    },
    {
      "inputs": [
        {
          "internalType": "uint256",
          "name": "_id",
          "type": "uint256"
        }
      ],
      "name": "liquidateDemo",
      "outputs": [],
      "stateMutability": "nonpayable",
      "type": "function"
    },
    {
      "inputs": [
        {
          "internalType": "address",
          "name": "",
          "type": "address"
        },
        {
          "internalType": "uint256",
          "name": "",
          "type": "uint256"
        }
      ],
      "name": "loans",
      "outputs": [
        {
          "internalType": "uint256",
          "name": "id",
          "type": "uint256"
        },
        {
          "internalType": "address",
          "name": "lender",
          "type": "address"
        },
        {
          "internalType": "address",
          "name": "borrower",
          "type": "address"
        },
        {
          "internalType": "address",
          "name": "token",
          "type": "address"
        },
        {
          "internalType": "uint256",
          "name": "term",
          "type": "uint256"
        },
        {
          "internalType": "uint256",
          "name": "amount",
          "type": "uint256"
        },
        {
          "internalType": "uint256",
          "name": "rate",
          "type": "uint256"
        },
        {
          "internalType": "uint256",
          "name": "startDate",
          "type": "uint256"
        },
        {
          "internalType": "uint256",
          "name": "endDate",
          "type": "uint256"
        },
        {
          "internalType": "uint256",
          "name": "repaymentAmount",
          "type": "uint256"
        }
      ],
      "stateMutability": "view",
      "type": "function"
    },
    {
      "inputs": [
        {
          "internalType": "address",
          "name": "_token",
          "type": "address"
        },
        {
          "internalType": "uint256",
          "name": "_amount",
          "type": "uint256"
        },
        {
          "internalType": "uint256",
          "name": "_term",
          "type": "uint256"
        }
      ],
      "name": "marketAsk",
      "outputs": [],
      "stateMutability": "nonpayable",
      "type": "function"
    },
    {
      "inputs": [
        {
          "internalType": "address",
          "name": "_token",
          "type": "address"
        },
        {
          "internalType": "uint256",
          "name": "_amount",
          "type": "uint256"
        },
        {
          "internalType": "uint256",
          "name": "_term",
          "type": "uint256"
        }
      ],
      "name": "marketBid",
      "outputs": [],
      "stateMutability": "nonpayable",
      "type": "function"
    },
    {
      "inputs": [
        {
          "internalType": "address",
          "name": "_token",
          "type": "address"
        }
      ],
      "name": "paySubscription",
      "outputs": [],
      "stateMutability": "nonpayable",
      "type": "function"
    },
    {
      "inputs": [
        {
          "internalType": "uint256",
          "name": "_id",
          "type": "uint256"
        }
      ],
      "name": "repay",
      "outputs": [],
      "stateMutability": "nonpayable",
      "type": "function"
    },
    {
      "inputs": [
        {
          "internalType": "uint256",
          "name": "_score",
          "type": "uint256"
        }
      ],
      "name": "setCreditScore",
      "outputs": [],
      "stateMutability": "nonpayable",
      "type": "function"
    }
  ],
  "bytecode": "0x6080604052605560005534801561001557600080fd5b5061503c806100256000396000f3fe608060405234801561001057600080fd5b506004361061012c5760003560e01c80637c0798b7116100ad578063b5f38dce11610071578063b5f38dce1461034a578063b758f0931461037a578063f26957dd146103aa578063f7e590ee146103da578063fbba97cb1461040a5761012c565b80637c0798b7146102755780638f601f661461029157806398c61c37146102c1578063a0fca382146102fa578063af9244a71461032e5761012c565b806347e7ef24116100f457806347e7ef24146101d55780634914c008146101f157806351b7ab331461020d5780635c5aefb9146102295780636b64c885146102455761012c565b80630ab66be3146101315780631539ce6b1461014d57806320ce84a414610169578063371fd8e61461018557806346d02934146101a1575b600080fd5b61014b60048036038101906101469190614470565b61043a565b005b610167600480360381019061016291906144d3565b610507565b005b610183600480360381019061017e91906144d3565b611196565b005b61019f600480360381019061019a9190614526565b611c01565b005b6101bb60048036038101906101b691906144d3565b6125c3565b6040516101cc959493929190614571565b60405180910390f35b6101ef60048036038101906101ea91906145c4565b612643565b005b61020b60048036038101906102069190614604565b612944565b005b61022760048036038101906102229190614657565b612f02565b005b610243600480360381019061023e9190614526565b6133f9565b005b61025f600480360381019061025a9190614470565b6139f6565b60405161026c919061477c565b60405180910390f35b61028f600480360381019061028a9190614657565b613a8d565b005b6102ab60048036038101906102a6919061479e565b613ebe565b6040516102b891906147de565b60405180910390f35b6102db60048036038101906102d691906145c4565b613ee3565b6040516102f19a999897969594939291906147f9565b60405180910390f35b610314600480360381019061030f91906144d3565b613fa4565b604051610325959493929190614571565b60405180910390f35b61034860048036038101906103439190614526565b614024565b005b610364600480360381019061035f91906145c4565b61406b565b60405161037191906149bb565b60405180910390f35b610394600480360381019061038f91906145c4565b614199565b6040516103a19190614af4565b60405180910390f35b6103c460048036038101906103bf9190614470565b6142c7565b6040516103d1919061477c565b60405180910390f35b6103f460048036038101906103ef9190614470565b61435e565b60405161040191906147de565b60405180910390f35b610424600480360381019061041f9190614470565b614376565b604051610431919061477c565b60405180910390f35b600081905060008173ffffffffffffffffffffffffffffffffffffffff166323b872dd3330674563918244f400006040518463ffffffff1660e01b815260040161048693929190614b5b565b6020604051808303816000875af11580156104a5573d6000803e3d6000fd5b505050506040513d601f19601f820116820180604052508101906104c99190614bca565b905080610502576040517f90b8ec1800000000000000000000000000000000000000000000000000000000815260040160405180910390fd5b505050565b6000600260003373ffffffffffffffffffffffffffffffffffffffff1673ffffffffffffffffffffffffffffffffffffffff16815260200190815260200160002060008573ffffffffffffffffffffffffffffffffffffffff1673ffffffffffffffffffffffffffffffffffffffff16815260200190815260200160002054116105bd576040517f609ac0e100000000000000000000000000000000000000000000000000000000815260040160405180910390fd5b600660003373ffffffffffffffffffffffffffffffffffffffff1673ffffffffffffffffffffffffffffffffffffffff1681526020019081526020016000205460005461060a9190614c26565b6064836106179190614c5a565b6106219190614ccb565b600260003373ffffffffffffffffffffffffffffffffffffffff1673ffffffffffffffffffffffffffffffffffffffff16815260200190815260200160002060008573ffffffffffffffffffffffffffffffffffffffff1673ffffffffffffffffffffffffffffffffffffffff1681526020019081526020016000205410156106d6576040517f4269cccf00000000000000000000000000000000000000000000000000000000815260040160405180910390fd5b60008390506000600360008673ffffffffffffffffffffffffffffffffffffffff1673ffffffffffffffffffffffffffffffffffffffff16815260200190815260200160002060008481526020019081526020016000209050600081805490501161076d576040517f515a1e2100000000000000000000000000000000000000000000000000000000815260040160405180910390fd5b6000807fffffffffffffffffffffffffffffffffffffffffffffffffffffffffffffffff905060005b838054905081101561080c57818482815481106107b6576107b5614cfc565b5b90600052602060002090600502016003015410156107f9578381815481106107e1576107e0614cfc565b5b90600052602060002090600502016003015491508092505b808061080490614d2b565b915050610796565b50600083838154811061082257610821614cfc565b5b906000526020600020906005020190508681600201541015610870576040517febcecec500000000000000000000000000000000000000000000000000000000815260040160405180910390fd5b600060405180610140016040528060015481526020018360010160009054906101000a900473ffffffffffffffffffffffffffffffffffffffff1673ffffffffffffffffffffffffffffffffffffffff1681526020013373ffffffffffffffffffffffffffffffffffffffff1681526020018a73ffffffffffffffffffffffffffffffffffffffff16815260200188815260200189815260200184815260200142815260200162015180896109259190614c5a565b426109309190614c26565b81526020016237b1d089868c6109469190614c5a565b6109509190614c5a565b61095a9190614ccb565b815250905080600560008460010160009054906101000a900473ffffffffffffffffffffffffffffffffffffffff1673ffffffffffffffffffffffffffffffffffffffff1673ffffffffffffffffffffffffffffffffffffffff168152602001908152602001600020600060015481526020019081526020016000206000820151816000015560208201518160010160006101000a81548173ffffffffffffffffffffffffffffffffffffffff021916908373ffffffffffffffffffffffffffffffffffffffff16021790555060408201518160020160006101000a81548173ffffffffffffffffffffffffffffffffffffffff021916908373ffffffffffffffffffffffffffffffffffffffff16021790555060608201518160030160006101000a81548173ffffffffffffffffffffffffffffffffffffffff021916908373ffffffffffffffffffffffffffffffffffffffff1602179055506080820151816004015560a0820151816005015560c0820151816006015560e082015181600701556101008201518160080155610120820151816009015590505080600560003373ffffffffffffffffffffffffffffffffffffffff1673ffffffffffffffffffffffffffffffffffffffff168152602001908152602001600020600060015481526020019081526020016000206000820151816000015560208201518160010160006101000a81548173ffffffffffffffffffffffffffffffffffffffff021916908373ffffffffffffffffffffffffffffffffffffffff16021790555060408201518160020160006101000a81548173ffffffffffffffffffffffffffffffffffffffff021916908373ffffffffffffffffffffffffffffffffffffffff16021790555060608201518160030160006101000a81548173ffffffffffffffffffffffffffffffffffffffff021916908373ffffffffffffffffffffffffffffffffffffffff1602179055506080820151816004015560a0820151816005015560c0820151816006015560e0820151816007015561010082015181600801556101208201518160090155905050600760003373ffffffffffffffffffffffffffffffffffffffff1673ffffffffffffffffffffffffffffffffffffffff1681526020019081526020016000206001549080600181540180825580915050600190039060005260206000200160009091909190915055600760008360010160009054906101000a900473ffffffffffffffffffffffffffffffffffffffff1673ffffffffffffffffffffffffffffffffffffffff1673ffffffffffffffffffffffffffffffffffffffff16815260200190815260200160002060015490806001815401808255809150506001900390600052602060002001600090919091909150556001806000828254610d6f9190614c26565b9250508190555087826002015403610edb578460018680549050610d939190614d73565b81548110610da457610da3614cfc565b5b9060005260206000209060050201858581548110610dc557610dc4614cfc565b5b9060005260206000209060050201600082015481600001556001820160009054906101000a900473ffffffffffffffffffffffffffffffffffffffff168160010160006101000a81548173ffffffffffffffffffffffffffffffffffffffff021916908373ffffffffffffffffffffffffffffffffffffffff16021790555060028201548160020155600382015481600301556004820154816004015590505084805480610e7657610e75614da7565b5b60019003818190600052602060002090600502016000808201600090556001820160006101000a81549073ffffffffffffffffffffffffffffffffffffffff021916905560028201600090556003820160009055600482016000905550509055610ef7565b87826002016000828254610eef9190614d73565b925050819055505b8573ffffffffffffffffffffffffffffffffffffffff1663095ea7b3338a6040518363ffffffff1660e01b8152600401610f32929190614dd6565b6020604051808303816000875af1158015610f51573d6000803e3d6000fd5b505050506040513d601f19601f82011682018060405250810190610f759190614bca565b5060008673ffffffffffffffffffffffffffffffffffffffff1663a9059cbb338b6040518363ffffffff1660e01b8152600401610fb3929190614dd6565b6020604051808303816000875af1158015610fd2573d6000803e3d6000fd5b505050506040513d601f19601f82011682018060405250810190610ff69190614bca565b90508061102f576040517f90b8ec1800000000000000000000000000000000000000000000000000000000815260040160405180910390fd5b600660003373ffffffffffffffffffffffffffffffffffffffff1673ffffffffffffffffffffffffffffffffffffffff1681526020019081526020016000205460005461107c9190614c26565b60648a6110899190614c5a565b6110939190614ccb565b600260003373ffffffffffffffffffffffffffffffffffffffff1673ffffffffffffffffffffffffffffffffffffffff16815260200190815260200160002060008c73ffffffffffffffffffffffffffffffffffffffff1673ffffffffffffffffffffffffffffffffffffffff168152602001908152602001600020600082825461111e9190614d73565b925050819055507f211a9a8c9bba60a2becbf9549f2655df8d70cd863fa5b5bfea861c986ba2b4708360010160009054906101000a900473ffffffffffffffffffffffffffffffffffffffff16338c8b8d8960405161118296959493929190614dff565b60405180910390a150505050505050505050565b6000600260003373ffffffffffffffffffffffffffffffffffffffff1673ffffffffffffffffffffffffffffffffffffffff16815260200190815260200160002060008573ffffffffffffffffffffffffffffffffffffffff1673ffffffffffffffffffffffffffffffffffffffff168152602001908152602001600020541161124c576040517f609ac0e100000000000000000000000000000000000000000000000000000000815260040160405180910390fd5b81600260003373ffffffffffffffffffffffffffffffffffffffff1673ffffffffffffffffffffffffffffffffffffffff16815260200190815260200160002060008573ffffffffffffffffffffffffffffffffffffffff1673ffffffffffffffffffffffffffffffffffffffff168152602001908152602001600020541015611302576040517f4269cccf00000000000000000000000000000000000000000000000000000000815260040160405180910390fd5b6000600460008573ffffffffffffffffffffffffffffffffffffffff1673ffffffffffffffffffffffffffffffffffffffff168152602001908152602001600020600083815260200190815260200160002090506000818054905011611394576040517f515a1e2100000000000000000000000000000000000000000000000000000000815260040160405180910390fd5b6000806000905060005b838054905081101561141457818482815481106113be576113bd614cfc565b5b9060005260206000209060050201600301541115611401578381815481106113e9576113e8614cfc565b5b90600052602060002090600502016003015491508092505b808061140c90614d2b565b91505061139e565b50600083838154811061142a57611429614cfc565b5b906000526020600020906005020190508581600201541015611478576040517febcecec500000000000000000000000000000000000000000000000000000000815260040160405180910390fd5b600060405180610140016040528060015481526020013373ffffffffffffffffffffffffffffffffffffffff1681526020018360010160009054906101000a900473ffffffffffffffffffffffffffffffffffffffff1673ffffffffffffffffffffffffffffffffffffffff1681526020018973ffffffffffffffffffffffffffffffffffffffff168152602001878152602001888152602001848152602001428152602001620151808861152d9190614c5a565b426115389190614c26565b81526020016237b1d088868b61154e9190614c5a565b6115589190614c5a565b6115629190614ccb565b815250905080600560003373ffffffffffffffffffffffffffffffffffffffff1673ffffffffffffffffffffffffffffffffffffffff168152602001908152602001600020600060015481526020019081526020016000206000820151816000015560208201518160010160006101000a81548173ffffffffffffffffffffffffffffffffffffffff021916908373ffffffffffffffffffffffffffffffffffffffff16021790555060408201518160020160006101000a81548173ffffffffffffffffffffffffffffffffffffffff021916908373ffffffffffffffffffffffffffffffffffffffff16021790555060608201518160030160006101000a81548173ffffffffffffffffffffffffffffffffffffffff021916908373ffffffffffffffffffffffffffffffffffffffff1602179055506080820151816004015560a0820151816005015560c0820151816006015560e082015181600701556101008201518160080155610120820151816009015590505080600560008460010160009054906101000a900473ffffffffffffffffffffffffffffffffffffffff1673ffffffffffffffffffffffffffffffffffffffff1673ffffffffffffffffffffffffffffffffffffffff168152602001908152602001600020600060015481526020019081526020016000206000820151816000015560208201518160010160006101000a81548173ffffffffffffffffffffffffffffffffffffffff021916908373ffffffffffffffffffffffffffffffffffffffff16021790555060408201518160020160006101000a81548173ffffffffffffffffffffffffffffffffffffffff021916908373ffffffffffffffffffffffffffffffffffffffff16021790555060608201518160030160006101000a81548173ffffffffffffffffffffffffffffffffffffffff021916908373ffffffffffffffffffffffffffffffffffffffff1602179055506080820151816004015560a0820151816005015560c0820151816006015560e0820151816007015561010082015181600801556101208201518160090155905050600760003373ffffffffffffffffffffffffffffffffffffffff1673ffffffffffffffffffffffffffffffffffffffff1681526020019081526020016000206001549080600181540180825580915050600190039060005260206000200160009091909190915055600760008360010160009054906101000a900473ffffffffffffffffffffffffffffffffffffffff1673ffffffffffffffffffffffffffffffffffffffff1673ffffffffffffffffffffffffffffffffffffffff168152602001908152602001600020600154908060018154018082558091505060019003906000526020600020016000909190919091505560018060008282546119779190614c26565b9250508190555086826002015403611ae357846001868054905061199b9190614d73565b815481106119ac576119ab614cfc565b5b90600052602060002090600502018585815481106119cd576119cc614cfc565b5b9060005260206000209060050201600082015481600001556001820160009054906101000a900473ffffffffffffffffffffffffffffffffffffffff168160010160006101000a81548173ffffffffffffffffffffffffffffffffffffffff021916908373ffffffffffffffffffffffffffffffffffffffff16021790555060028201548160020155600382015481600301556004820154816004015590505084805480611a7e57611a7d614da7565b5b60019003818190600052602060002090600502016000808201600090556001820160006101000a81549073ffffffffffffffffffffffffffffffffffffffff021916905560028201600090556003820160009055600482016000905550509055611aff565b86826002016000828254611af79190614d73565b925050819055505b86600260003373ffffffffffffffffffffffffffffffffffffffff1673ffffffffffffffffffffffffffffffffffffffff16815260200190815260200160002060008a73ffffffffffffffffffffffffffffffffffffffff1673ffffffffffffffffffffffffffffffffffffffff1681526020019081526020016000206000828254611b8b9190614d73565b925050819055507f1ac8cd486df59e4976a8d61dd562170439ad74f7be473f530d30d715da1f2ea0338360010160009054906101000a900473ffffffffffffffffffffffffffffffffffffffff168a898b88604051611bef96959493929190614dff565b60405180910390a15050505050505050565b6000600560003373ffffffffffffffffffffffffffffffffffffffff1673ffffffffffffffffffffffffffffffffffffffff168152602001908152602001600020600083815260200190815260200160002060405180610140016040529081600082015481526020016001820160009054906101000a900473ffffffffffffffffffffffffffffffffffffffff1673ffffffffffffffffffffffffffffffffffffffff1673ffffffffffffffffffffffffffffffffffffffff1681526020016002820160009054906101000a900473ffffffffffffffffffffffffffffffffffffffff1673ffffffffffffffffffffffffffffffffffffffff1673ffffffffffffffffffffffffffffffffffffffff1681526020016003820160009054906101000a900473ffffffffffffffffffffffffffffffffffffffff1673ffffffffffffffffffffffffffffffffffffffff1673ffffffffffffffffffffffffffffffffffffffff1681526020016004820154815260200160058201548152602001600682015481526020016007820154815260200160088201548152602001600982015481525050905081816000015114611de6576040517fd948bf1400000000000000000000000000000000000000000000000000000000815260040160405180910390fd5b3373ffffffffffffffffffffffffffffffffffffffff16816040015173ffffffffffffffffffffffffffffffffffffffff1614611e4f576040517f4cabb0ba00000000000000000000000000000000000000000000000000000000815260040160405180910390fd5b6000816060015190508161012001518260a00151611e6d9190614c26565b8173ffffffffffffffffffffffffffffffffffffffff166370a08231336040518263ffffffff1660e01b8152600401611ea69190614e60565b602060405180830381865afa158015611ec3573d6000803e3d6000fd5b505050506040513d601f19601f82011682018060405250810190611ee79190614e90565b1015611f1f576040517fa7dfaf5800000000000000000000000000000000000000000000000000000000815260040160405180910390fd5b60008173ffffffffffffffffffffffffffffffffffffffff1663a9059cbb308561012001518660a00151611f539190614c26565b6040518363ffffffff1660e01b8152600401611f70929190614dd6565b6020604051808303816000875af1158015611f8f573d6000803e3d6000fd5b505050506040513d601f19601f82011682018060405250810190611fb39190614bca565b905080611fec576040517f90b8ec1800000000000000000000000000000000000000000000000000000000815260040160405180910390fd5b600560003373ffffffffffffffffffffffffffffffffffffffff1673ffffffffffffffffffffffffffffffffffffffff16815260200190815260200160002060008581526020019081526020016000206000808201600090556001820160006101000a81549073ffffffffffffffffffffffffffffffffffffffff02191690556002820160006101000a81549073ffffffffffffffffffffffffffffffffffffffff02191690556003820160006101000a81549073ffffffffffffffffffffffffffffffffffffffff0219169055600482016000905560058201600090556006820160009055600782016000905560088201600090556009820160009055505060056000846020015173ffffffffffffffffffffffffffffffffffffffff1673ffffffffffffffffffffffffffffffffffffffff16815260200190815260200160002060008581526020019081526020016000206000808201600090556001820160006101000a81549073ffffffffffffffffffffffffffffffffffffffff02191690556002820160006101000a81549073ffffffffffffffffffffffffffffffffffffffff02191690556003820160006101000a81549073ffffffffffffffffffffffffffffffffffffffff02191690556004820160009055600582016000905560068201600090556007820160009055600882016000905560098201600090555050826101200151600660003373ffffffffffffffffffffffffffffffffffffffff1673ffffffffffffffffffffffffffffffffffffffff168152602001908152602001600020546000546122439190614c26565b60648560a001516122549190614c5a565b61225e9190614ccb565b6122689190614d73565b600260003373ffffffffffffffffffffffffffffffffffffffff1673ffffffffffffffffffffffffffffffffffffffff1681526020019081526020016000206000856060015173ffffffffffffffffffffffffffffffffffffffff1673ffffffffffffffffffffffffffffffffffffffff16815260200190815260200160002060008282546122f79190614c26565b925050819055508261012001518360a001516123139190614c26565b60026000856020015173ffffffffffffffffffffffffffffffffffffffff1673ffffffffffffffffffffffffffffffffffffffff1681526020019081526020016000206000856060015173ffffffffffffffffffffffffffffffffffffffff1673ffffffffffffffffffffffffffffffffffffffff16815260200190815260200160002060008282546123a69190614c26565b925050819055506000600760003373ffffffffffffffffffffffffffffffffffffffff1673ffffffffffffffffffffffffffffffffffffffff168152602001908152602001600020905060005b81805490508110156124b1578582828154811061241357612412614cfc565b5b90600052602060002001540361249e5781600183805490506124359190614d73565b8154811061244657612445614cfc565b5b906000526020600020015482828154811061246457612463614cfc565b5b90600052602060002001819055508180548061248357612482614da7565b5b600190038181906000526020600020016000905590556124b1565b80806124a990614d2b565b9150506123f3565b50600060076000866020015173ffffffffffffffffffffffffffffffffffffffff1673ffffffffffffffffffffffffffffffffffffffff168152602001908152602001600020905060005b81805490508110156125ba578682828154811061251c5761251b614cfc565b5b9060005260206000200154036125a757816001838054905061253e9190614d73565b8154811061254f5761254e614cfc565b5b906000526020600020015482828154811061256d5761256c614cfc565b5b90600052602060002001819055508180548061258c5761258b614da7565b5b600190038181906000526020600020016000905590556125ba565b80806125b290614d2b565b9150506124fc565b50505050505050565b600460205282600052604060002060205281600052604060002081815481106125eb57600080fd5b906000526020600020906005020160009250925050508060000154908060010160009054906101000a900473ffffffffffffffffffffffffffffffffffffffff16908060020154908060030154908060040154905085565b6000811161267d576040517f0ddbd93400000000000000000000000000000000000000000000000000000000815260040160405180910390fd5b600082905060008173ffffffffffffffffffffffffffffffffffffffff1663dd62ed3e33306040518363ffffffff1660e01b81526004016126bf929190614ebd565b602060405180830381865afa1580156126dc573d6000803e3d6000fd5b505050506040513d601f19601f820116820180604052508101906127009190614e90565b90508281101561273c576040517f37857d4700000000000000000000000000000000000000000000000000000000815260040160405180910390fd5b828273ffffffffffffffffffffffffffffffffffffffff166370a08231336040518263ffffffff1660e01b81526004016127769190614e60565b602060405180830381865afa158015612793573d6000803e3d6000fd5b505050506040513d601f19601f820116820180604052508101906127b79190614e90565b10156127ef576040517fa708c98200000000000000000000000000000000000000000000000000000000815260040160405180910390fd5b60008273ffffffffffffffffffffffffffffffffffffffff166323b872dd3330876040518463ffffffff1660e01b815260040161282e93929190614ee6565b6020604051808303816000875af115801561284d573d6000803e3d6000fd5b505050506040513d601f19601f820116820180604052508101906128719190614bca565b9050806128aa576040517f90b8ec1800000000000000000000000000000000000000000000000000000000815260040160405180910390fd5b83600260003373ffffffffffffffffffffffffffffffffffffffff1673ffffffffffffffffffffffffffffffffffffffff16815260200190815260200160002060008773ffffffffffffffffffffffffffffffffffffffff1673ffffffffffffffffffffffffffffffffffffffff16815260200190815260200160002060008282546129369190614c26565b925050819055505050505050565b6000819050600084905060008273ffffffffffffffffffffffffffffffffffffffff166357de26a46040518163ffffffff1660e01b8152600401602060405180830381865afa15801561299b573d6000803e3d6000fd5b505050506040513d601f19601f820116820180604052508101906129bf9190614e90565b90506000600560008873ffffffffffffffffffffffffffffffffffffffff1673ffffffffffffffffffffffffffffffffffffffff168152602001908152602001600020600087815260200190815260200160002090506000828260050154612a279190614c5a565b9050600083600260008560020160009054906101000a900473ffffffffffffffffffffffffffffffffffffffff1673ffffffffffffffffffffffffffffffffffffffff1673ffffffffffffffffffffffffffffffffffffffff16815260200190815260200160002060008b73ffffffffffffffffffffffffffffffffffffffff1673ffffffffffffffffffffffffffffffffffffffff16815260200190815260200160002054612ad79190614c5a565b9050600660003373ffffffffffffffffffffffffffffffffffffffff1673ffffffffffffffffffffffffffffffffffffffff16815260200190815260200160002054600054612b269190614c26565b82606483612b349190614c5a565b612b3e9190614ccb565b1015612b76576040517f4e9211e100000000000000000000000000000000000000000000000000000000815260040160405180910390fd5b60006064600660003373ffffffffffffffffffffffffffffffffffffffff1673ffffffffffffffffffffffffffffffffffffffff16815260200190815260200160002054600054612bc79190614c26565b8560050154612bd69190614c5a565b612be09190614ccb565b9050808673ffffffffffffffffffffffffffffffffffffffff166370a08231336040518263ffffffff1660e01b8152600401612c1c9190614e60565b602060405180830381865afa158015612c39573d6000803e3d6000fd5b505050506040513d601f19601f82011682018060405250810190612c5d9190614e90565b1015612c9e576040517f08c379a0000000000000000000000000000000000000000000000000000000008152600401612c9590614f7a565b60405180910390fd5b8573ffffffffffffffffffffffffffffffffffffffff166323b872dd3330846040518463ffffffff1660e01b8152600401612cdb93929190614ee6565b6020604051808303816000875af1158015612cfa573d6000803e3d6000fd5b505050506040513d601f19601f82011682018060405250810190612d1e9190614bca565b612d5d576040517f08c379a0000000000000000000000000000000000000000000000000000000008152600401612d5490614fe6565b60405180910390fd5b80600260008660020160009054906101000a900473ffffffffffffffffffffffffffffffffffffffff1673ffffffffffffffffffffffffffffffffffffffff1673ffffffffffffffffffffffffffffffffffffffff16815260200190815260200160002060008c73ffffffffffffffffffffffffffffffffffffffff1673ffffffffffffffffffffffffffffffffffffffff1681526020019081526020016000206000828254612e0d9190614d73565b925050819055508573ffffffffffffffffffffffffffffffffffffffff1663a9059cbb3360646000546064612e429190614d73565b85612e4d9190614c5a565b612e579190614ccb565b6040518363ffffffff1660e01b8152600401612e74929190614dd6565b6020604051808303816000875af1158015612e93573d6000803e3d6000fd5b505050506040513d601f19601f82011682018060405250810190612eb79190614bca565b612ef6576040517f08c379a0000000000000000000000000000000000000000000000000000000008152600401612eed90614fe6565b60405180910390fd5b50505050505050505050565b60008311612f3c576040517febcecec500000000000000000000000000000000000000000000000000000000815260040160405180910390fd5b600081111580612f4d575061271081115b15612f84576040517fb880e6ac00000000000000000000000000000000000000000000000000000000815260040160405180910390fd5b6000600260003373ffffffffffffffffffffffffffffffffffffffff1673ffffffffffffffffffffffffffffffffffffffff16815260200190815260200160002060008673ffffffffffffffffffffffffffffffffffffffff1673ffffffffffffffffffffffffffffffffffffffff168152602001908152602001600020541161303a576040517f609ac0e100000000000000000000000000000000000000000000000000000000815260040160405180910390fd5b600660003373ffffffffffffffffffffffffffffffffffffffff1673ffffffffffffffffffffffffffffffffffffffff168152602001908152602001600020546000546130879190614c26565b6064846130949190614c5a565b61309e9190614ccb565b600260003373ffffffffffffffffffffffffffffffffffffffff1673ffffffffffffffffffffffffffffffffffffffff16815260200190815260200160002060008673ffffffffffffffffffffffffffffffffffffffff1673ffffffffffffffffffffffffffffffffffffffff168152602001908152602001600020541015613153576040517f4269cccf00000000000000000000000000000000000000000000000000000000815260040160405180910390fd5b600660003373ffffffffffffffffffffffffffffffffffffffff1673ffffffffffffffffffffffffffffffffffffffff168152602001908152602001600020546000546131a09190614c26565b6064846131ad9190614c5a565b6131b79190614ccb565b600260003373ffffffffffffffffffffffffffffffffffffffff1673ffffffffffffffffffffffffffffffffffffffff16815260200190815260200160002060008673ffffffffffffffffffffffffffffffffffffffff1673ffffffffffffffffffffffffffffffffffffffff16815260200190815260200160002060008282546132429190614d73565b92505081905550600460008573ffffffffffffffffffffffffffffffffffffffff1673ffffffffffffffffffffffffffffffffffffffff16815260200190815260200160002060008381526020019081526020016000206040518060a0016040528060015481526020013373ffffffffffffffffffffffffffffffffffffffff1681526020018581526020018381526020014281525090806001815401808255809150506001900390600052602060002090600502016000909190919091506000820151816000015560208201518160010160006101000a81548173ffffffffffffffffffffffffffffffffffffffff021916908373ffffffffffffffffffffffffffffffffffffffff1602179055506040820151816002015560608201518160030155608082015181600401555050600960003373ffffffffffffffffffffffffffffffffffffffff1673ffffffffffffffffffffffffffffffffffffffff168152602001908152602001600020600154908060018154018082558091505060019003906000526020600020016000909190919091505560018060008282546133ec9190614c26565b9250508190555050505050565b6000600560003373ffffffffffffffffffffffffffffffffffffffff1673ffffffffffffffffffffffffffffffffffffffff168152602001908152602001600020600083815260200190815260200160002060405180610140016040529081600082015481526020016001820160009054906101000a900473ffffffffffffffffffffffffffffffffffffffff1673ffffffffffffffffffffffffffffffffffffffff1673ffffffffffffffffffffffffffffffffffffffff1681526020016002820160009054906101000a900473ffffffffffffffffffffffffffffffffffffffff1673ffffffffffffffffffffffffffffffffffffffff1673ffffffffffffffffffffffffffffffffffffffff1681526020016003820160009054906101000a900473ffffffffffffffffffffffffffffffffffffffff1673ffffffffffffffffffffffffffffffffffffffff1673ffffffffffffffffffffffffffffffffffffffff16815260200160048201548152602001600582015481526020016006820154815260200160078201548152602001600882015481526020016009820154815250509050818160000151146135de576040517fd948bf1400000000000000000000000000000000000000000000000000000000815260040160405180910390fd5b600560003373ffffffffffffffffffffffffffffffffffffffff1673ffffffffffffffffffffffffffffffffffffffff16815260200190815260200160002060008381526020019081526020016000206000808201600090556001820160006101000a81549073ffffffffffffffffffffffffffffffffffffffff02191690556002820160006101000a81549073ffffffffffffffffffffffffffffffffffffffff02191690556003820160006101000a81549073ffffffffffffffffffffffffffffffffffffffff0219169055600482016000905560058201600090556006820160009055600782016000905560088201600090556009820160009055505060056000826020015173ffffffffffffffffffffffffffffffffffffffff1673ffffffffffffffffffffffffffffffffffffffff16815260200190815260200160002060008381526020019081526020016000206000808201600090556001820160006101000a81549073ffffffffffffffffffffffffffffffffffffffff02191690556002820160006101000a81549073ffffffffffffffffffffffffffffffffffffffff02191690556003820160006101000a81549073ffffffffffffffffffffffffffffffffffffffff021916905560048201600090556005820160009055600682016000905560078201600090556008820160009055600982016000905550506000600760003373ffffffffffffffffffffffffffffffffffffffff1673ffffffffffffffffffffffffffffffffffffffff168152602001908152602001600020905060005b81805490508110156138e6578382828154811061384857613847614cfc565b5b9060005260206000200154036138d357816001838054905061386a9190614d73565b8154811061387b5761387a614cfc565b5b906000526020600020015482828154811061389957613898614cfc565b5b9060005260206000200181905550818054806138b8576138b7614da7565b5b600190038181906000526020600020016000905590556138e6565b80806138de90614d2b565b915050613828565b50600060076000846020015173ffffffffffffffffffffffffffffffffffffffff1673ffffffffffffffffffffffffffffffffffffffff168152602001908152602001600020905060005b81805490508110156139ef578482828154811061395157613950614cfc565b5b9060005260206000200154036139dc5781600183805490506139739190614d73565b8154811061398457613983614cfc565b5b90600052602060002001548282815481106139a2576139a1614cfc565b5b9060005260206000200181905550818054806139c1576139c0614da7565b5b600190038181906000526020600020016000905590556139ef565b80806139e790614d2b565b915050613931565b5050505050565b6060600760008373ffffffffffffffffffffffffffffffffffffffff1673ffffffffffffffffffffffffffffffffffffffff168152602001908152602001600020805480602002602001604051908101604052809291908181526020018280548015613a8157602002820191906000526020600020905b815481526020019060010190808311613a6d575b50505050509050919050565b60008311613ac7576040517febcecec500000000000000000000000000000000000000000000000000000000815260040160405180910390fd5b600081111580613ad8575061271081115b15613b0f576040517fb880e6ac00000000000000000000000000000000000000000000000000000000815260040160405180910390fd5b6000600260003373ffffffffffffffffffffffffffffffffffffffff1673ffffffffffffffffffffffffffffffffffffffff16815260200190815260200160002060008673ffffffffffffffffffffffffffffffffffffffff1673ffffffffffffffffffffffffffffffffffffffff1681526020019081526020016000205411613bc5576040517f609ac0e100000000000000000000000000000000000000000000000000000000815260040160405180910390fd5b82600260003373ffffffffffffffffffffffffffffffffffffffff1673ffffffffffffffffffffffffffffffffffffffff16815260200190815260200160002060008673ffffffffffffffffffffffffffffffffffffffff1673ffffffffffffffffffffffffffffffffffffffff168152602001908152602001600020541015613c7b576040517f4269cccf00000000000000000000000000000000000000000000000000000000815260040160405180910390fd5b82600260003373ffffffffffffffffffffffffffffffffffffffff1673ffffffffffffffffffffffffffffffffffffffff16815260200190815260200160002060008673ffffffffffffffffffffffffffffffffffffffff1673ffffffffffffffffffffffffffffffffffffffff1681526020019081526020016000206000828254613d079190614d73565b92505081905550600360008573ffffffffffffffffffffffffffffffffffffffff1673ffffffffffffffffffffffffffffffffffffffff16815260200190815260200160002060008381526020019081526020016000206040518060a0016040528060015481526020013373ffffffffffffffffffffffffffffffffffffffff1681526020018581526020018381526020014281525090806001815401808255809150506001900390600052602060002090600502016000909190919091506000820151816000015560208201518160010160006101000a81548173ffffffffffffffffffffffffffffffffffffffff021916908373ffffffffffffffffffffffffffffffffffffffff1602179055506040820151816002015560608201518160030155608082015181600401555050600860003373ffffffffffffffffffffffffffffffffffffffff1673ffffffffffffffffffffffffffffffffffffffff16815260200190815260200160002060015490806001815401808255809150506001900390600052602060002001600090919091909150556001806000828254613eb19190614c26565b9250508190555050505050565b6002602052816000526040600020602052806000526040600020600091509150505481565b6005602052816000526040600020602052806000526040600020600091509150508060000154908060010160009054906101000a900473ffffffffffffffffffffffffffffffffffffffff16908060020160009054906101000a900473ffffffffffffffffffffffffffffffffffffffff16908060030160009054906101000a900473ffffffffffffffffffffffffffffffffffffffff1690806004015490806005015490806006015490806007015490806008015490806009015490508a565b60036020528260005260406000206020528160005260406000208181548110613fcc57600080fd5b906000526020600020906005020160009250925050508060000154908060010160009054906101000a900473ffffffffffffffffffffffffffffffffffffffff16908060020154908060030154908060040154905085565b80600660003373ffffffffffffffffffffffffffffffffffffffff1673ffffffffffffffffffffffffffffffffffffffff1681526020019081526020016000208190555050565b6060600460008473ffffffffffffffffffffffffffffffffffffffff1673ffffffffffffffffffffffffffffffffffffffff1681526020019081526020016000206000838152602001908152602001600020805480602002602001604051908101604052809291908181526020016000905b8282101561418d57838290600052602060002090600502016040518060a0016040529081600082015481526020016001820160009054906101000a900473ffffffffffffffffffffffffffffffffffffffff1673ffffffffffffffffffffffffffffffffffffffff1673ffffffffffffffffffffffffffffffffffffffff1681526020016002820154815260200160038201548152602001600482015481525050815260200190600101906140dd565b50505050905092915050565b6060600360008473ffffffffffffffffffffffffffffffffffffffff1673ffffffffffffffffffffffffffffffffffffffff1681526020019081526020016000206000838152602001908152602001600020805480602002602001604051908101604052809291908181526020016000905b828210156142bb57838290600052602060002090600502016040518060a0016040529081600082015481526020016001820160009054906101000a900473ffffffffffffffffffffffffffffffffffffffff1673ffffffffffffffffffffffffffffffffffffffff1673ffffffffffffffffffffffffffffffffffffffff16815260200160028201548152602001600382015481526020016004820154815250508152602001906001019061420b565b50505050905092915050565b6060600960008373ffffffffffffffffffffffffffffffffffffffff1673ffffffffffffffffffffffffffffffffffffffff16815260200190815260200160002080548060200260200160405190810160405280929190818152602001828054801561435257602002820191906000526020600020905b81548152602001906001019080831161433e575b50505050509050919050565b60066020528060005260406000206000915090505481565b6060600860008373ffffffffffffffffffffffffffffffffffffffff1673ffffffffffffffffffffffffffffffffffffffff16815260200190815260200160002080548060200260200160405190810160405280929190818152602001828054801561440157602002820191906000526020600020905b8154815260200190600101908083116143ed575b50505050509050919050565b600080fd5b600073ffffffffffffffffffffffffffffffffffffffff82169050919050565b600061443d82614412565b9050919050565b61444d81614432565b811461445857600080fd5b50565b60008135905061446a81614444565b92915050565b6000602082840312156144865761448561440d565b5b60006144948482850161445b565b91505092915050565b6000819050919050565b6144b08161449d565b81146144bb57600080fd5b50565b6000813590506144cd816144a7565b92915050565b6000806000606084860312156144ec576144eb61440d565b5b60006144fa8682870161445b565b935050602061450b868287016144be565b925050604061451c868287016144be565b9150509250925092565b60006020828403121561453c5761453b61440d565b5b600061454a848285016144be565b91505092915050565b61455c8161449d565b82525050565b61456b81614432565b82525050565b600060a0820190506145866000830188614553565b6145936020830187614562565b6145a06040830186614553565b6145ad6060830185614553565b6145ba6080830184614553565b9695505050505050565b600080604083850312156145db576145da61440d565b5b60006145e98582860161445b565b92505060206145fa858286016144be565b9150509250929050565b60008060006060848603121561461d5761461c61440d565b5b600061462b8682870161445b565b935050602061463c868287016144be565b925050604061464d8682870161445b565b9150509250925092565b600080600080608085870312156146715761467061440d565b5b600061467f8782880161445b565b9450506020614690878288016144be565b93505060406146a1878288016144be565b92505060606146b2878288016144be565b91505092959194509250565b600081519050919050565b600082825260208201905092915050565b6000819050602082019050919050565b6146f38161449d565b82525050565b600061470583836146ea565b60208301905092915050565b6000602082019050919050565b6000614729826146be565b61473381856146c9565b935061473e836146da565b8060005b8381101561476f57815161475688826146f9565b975061476183614711565b925050600181019050614742565b5085935050505092915050565b60006020820190508181036000830152614796818461471e565b905092915050565b600080604083850312156147b5576147b461440d565b5b60006147c38582860161445b565b92505060206147d48582860161445b565b9150509250929050565b60006020820190506147f36000830184614553565b92915050565b60006101408201905061480f600083018d614553565b61481c602083018c614562565b614829604083018b614562565b614836606083018a614562565b6148436080830189614553565b61485060a0830188614553565b61485d60c0830187614553565b61486a60e0830186614553565b614878610100830185614553565b614886610120830184614553565b9b9a5050505050505050505050565b600081519050919050565b600082825260208201905092915050565b6000819050602082019050919050565b6148ca81614432565b82525050565b60a0820160008201516148e660008501826146ea565b5060208201516148f960208501826148c1565b50604082015161490c60408501826146ea565b50606082015161491f60608501826146ea565b50608082015161493260808501826146ea565b50505050565b600061494483836148d0565b60a08301905092915050565b6000602082019050919050565b600061496882614895565b61497281856148a0565b935061497d836148b1565b8060005b838110156149ae5781516149958882614938565b97506149a083614950565b925050600181019050614981565b5085935050505092915050565b600060208201905081810360008301526149d5818461495d565b905092915050565b600081519050919050565b600082825260208201905092915050565b6000819050602082019050919050565b60a082016000820151614a1f60008501826146ea565b506020820151614a3260208501826148c1565b506040820151614a4560408501826146ea565b506060820151614a5860608501826146ea565b506080820151614a6b60808501826146ea565b50505050565b6000614a7d8383614a09565b60a08301905092915050565b6000602082019050919050565b6000614aa1826149dd565b614aab81856149e8565b9350614ab6836149f9565b8060005b83811015614ae7578151614ace8882614a71565b9750614ad983614a89565b925050600181019050614aba565b5085935050505092915050565b60006020820190508181036000830152614b0e8184614a96565b905092915050565b6000819050919050565b6000819050919050565b6000614b45614b40614b3b84614b16565b614b20565b61449d565b9050919050565b614b5581614b2a565b82525050565b6000606082019050614b706000830186614562565b614b7d6020830185614562565b614b8a6040830184614b4c565b949350505050565b60008115159050919050565b614ba781614b92565b8114614bb257600080fd5b50565b600081519050614bc481614b9e565b92915050565b600060208284031215614be057614bdf61440d565b5b6000614bee84828501614bb5565b91505092915050565b7f4e487b7100000000000000000000000000000000000000000000000000000000600052601160045260246000fd5b6000614c318261449d565b9150614c3c8361449d565b9250828201905080821115614c5457614c53614bf7565b5b92915050565b6000614c658261449d565b9150614c708361449d565b9250828202614c7e8161449d565b91508282048414831517614c9557614c94614bf7565b5b5092915050565b7f4e487b7100000000000000000000000000000000000000000000000000000000600052601260045260246000fd5b6000614cd68261449d565b9150614ce18361449d565b925082614cf157614cf0614c9c565b5b828204905092915050565b7f4e487b7100000000000000000000000000000000000000000000000000000000600052603260045260246000fd5b6000614d368261449d565b91507fffffffffffffffffffffffffffffffffffffffffffffffffffffffffffffffff8203614d6857614d67614bf7565b5b600182019050919050565b6000614d7e8261449d565b9150614d898361449d565b9250828203905081811115614da157614da0614bf7565b5b92915050565b7f4e487b7100000000000000000000000000000000000000000000000000000000600052603160045260246000fd5b6000604082019050614deb6000830185614562565b614df86020830184614553565b9392505050565b600060c082019050614e146000830189614562565b614e216020830188614562565b614e2e6040830187614562565b614e3b6060830186614553565b614e486080830185614553565b614e5560a0830184614553565b979650505050505050565b6000602082019050614e756000830184614562565b92915050565b600081519050614e8a816144a7565b92915050565b600060208284031215614ea657614ea561440d565b5b6000614eb484828501614e7b565b91505092915050565b6000604082019050614ed26000830185614562565b614edf6020830184614562565b9392505050565b6000606082019050614efb6000830186614562565b614f086020830185614562565b614f156040830184614553565b949350505050565b600082825260208201905092915050565b7f496e73756666696369656e74206c69717569646174696f6e2062616c616e6365600082015250565b6000614f64602083614f1d565b9150614f6f82614f2e565b602082019050919050565b60006020820190508181036000830152614f9381614f57565b9050919050565b7f546f6b656e207472616e73666572206661696c65640000000000000000000000600082015250565b6000614fd0601583614f1d565b9150614fdb82614f9a565b602082019050919050565b60006020820190508181036000830152614fff81614fc3565b905091905056fea2646970667358221220caee3949073ee9274b3126daaffa1a709ae7157ac6068e9e056fcc773e1c567264736f6c63430008140033",
  "linkReferences": {},
  "deployedLinkReferences": {}
}